:0405EB000218000AE8
:100425001200031205D11206511202B78E128F1354
:10043500C3E5139519E5129518401AA28630870170
:10044500B3400512037080E120870512063680D976
:1004550012062480D41206487FA87E611206047510
:100465000E00750F017F987E3A1206041202B78EB0
:10047500168F177F987E3A120604750E00750F05C4
:100485007F987E3A1206041202B78E148F157F9854
:100495007E3A120604750E00750F03D3E517951500
:1004A500E51695145007C3E5169400500512001E75
:0F04B500800312062D7FBC7E3412060402042E33
:09001E00D293C294C295D296223D
:09062400C293D294D295D2962221
:09062D00C293D294D295C2962228
:09063600D293D294D295C296220F
:09063F00D293C294D295C2962216
:09064800D293D294D295D29622ED
:1003700030A01B30A11830A21530A31230A40F7585
:100380000A00750B4B750C00750D4B12064830A01A
:100390001B20A11830A21530A31230A40F750A003B
:1003A000750B1E750C00750D0F12063F20A01B303B
:1003B000A11830A21530A31230A40F750A00750BD6
:1003C00019750C00750D3C12063F30A01B30A118AA
:1003D00030A21520A31230A40F750A00750B0F75FB
:1003E0000C00750D1E12063F30A01B30A11830A264
:1003F0001530A31220A40F750A00750B3C750C0074
:10040000750D1912063F30A01B30A11820A215301F
:10041000A31230A40F750A00750B4B750C00750DF7
:050420004B12063F2213
:0F060400EF4E600B7D02DDFEEF1F70F41E80F1E4
:0106130022C4
:100614005389F0438909E4F58AF58CC28DD28C2282
:07065100C280C2B2020614D0
:1002B700E4F51CF51D120651D2807F017E0012065F
:1002C70004C280D2B220B21F051DE51D7002051CB5
:1002D7007F017E00120604D3E51D9410E51C9427C8
:1002E70040E37EFF7FFF22E4F51CF51D30B21F05BA
:1002F7001DE51D7002051C7F017E00120604D3E573
:100307001D9410E51C942740E37EFF7FFE22AF8CEF
:10031700AD8A7C00E4F58CF58AEFFEE42DFFEC3E18
:100327008F82F583FEE4FD7B707A117901F8C312A1
:1003370002A150057EFF7FFD22AE83AF82AD07ACE1
:1003470006E41201D97BFB7AED796B783F12002E18
:100357007B007A40791C7846120137E4FBFA792A48
:08036700784312002E1202126D
:01036F00226B
:1005EF0002080000020E000302100000020A003C85
:0405FF00020C003CAE
:1000030053890F438910758B33758DFEC28FD28E42
:07001300D2AFD2ABD2BB2239
:1005D100E4F5C9F5C875CCA475CDFF75CAA475CB72
:0A05E100FFD2CAD2ADD2AFC2BD22D4
:03001B0002059A41
:10059A00C0E0C0D0758B33758DFE0509E509700280
:1005AA000508D39428E508940040067508007509E3
:1005BA0000C3E509950FE508950E5004D2A58002FF
:0705CA00C2A5D0D0D0E03241
:03002B000205507B
:10055000C0E0C0D075CAA475CBFFC2CF0511E511AC
:1005600070020510D39464E51094004006751000E5
:10057000751100C3E511950BE510950A5004D29250
:100580008002C292C3E511950DE510950C5004D27E
:0A059000978002C297D0D0D0E0326D
:10002E00EC4D6011E8497017ED33EC3304600DE4CC
:10003E00FCFFFEFD22E933E8330470F802027E1263
:10004E00024958046009E4CC248150062850090264
:10005E000288284003020285C0E0EB4A7044B98052
:10006E0006D0E0FB020274EF4E701CBD8008EBFF61
:10007E00EAFEE9FD80EBE98DF0A4FEE5F002011742
:10008E00E9CDF9EAFEEBFFEF89F0A4FCE5F0CE89AD
:10009E00F0A42EFFE435F0CD89F0A42DFEE435F06A
:1000AE008067EF4E7005BD80D780C3EF8BF0A4AC98
:1000BE00F0EE8BF0A42CFCE435F0F8EF8AF0A42CD3
:1000CE00E5F038FCE433CB8DF0A42CFCE5F03BF8E6
:1000DE00EE8AF0A42CFCE5F038F8E433CF89F0A4D6
:1000EE002CFCE5F038CF3400CE89F0A42FFFE5F0DC
:1000FE003EFEE433C98DF0A42EFEE5F039CD8AF034
:10010E00A42FFFE5F03EFEE43DFD33D0E0FB5007AB
:10011E000BBB000F020288EC2CFCEF33FFEE33FE1C
:06012E00ED33FD0202604A
:10013400020288EC5D046005E85904700302027E43
:10014400120249580460F6EC4860F2EC7004FDFEBB
:10015400FF22C860DB2481C85009C398600250069E
:100164000202859850CAF582E9294B4A7005AB8290
:1001740002027475F0007C1A7880C3EF9BEE9AED4E
:1001840099400DC3EF9BFFEE9AFEED99FDE842F016
:10019400DC23ACF0D0E0FFD0E0FED0E0FDAB822069
:1001A400E7101BEB60BAEC2CFCEF33FFEE33FEEDF3
:1001B40033FD020260E803F830E705C0F075F00093
:1001C400EF2FFFEE33FEED33FD40B830E7C280AAD7
:1001D40075F020800E75F010800575F0087D007EA6
:1001E400007F003392D530D503120293EC334010D4
:1001F400EF33FFEE33FEED33FDEC33FCD5F0ED22AF
:0E020400E5F0247EA2D513CC92E7CDCEFF22EA
:10021200EDD2E7CD33EC3392D524814006E4FFFEE4
:10022200FDFC22FCE4CFCECDCC24E0501174FF8043
:10023200EDC3CC13CCCD13CDCE13CECF13CF0470E0
:07024200F030D5DE0202934B
:10024900E9D2E7C933E833F892D5EDD2E7CD33ECFB
:0702590033FC5002B2D52274
:10026000EC30E7100FBF000C0EBE00080DBD0004FF
:100270000BEB6014A2D5EB13FCED92E7FD2274FFAB
:10028000FCFDFEFF22E480F8A2D574FF13FC7D8004
:03029000E480EF18
:030000000204C433
:0C04C400787FE4F6D8FD75811D02050B61
:0E029300C3E49FFFE49EFEE49DFDE49CFC227C
:1002A100EB9FF5F0EA9E42F0E99D42F0EC6480C8D4
:0602B10064809845F02274
:1004D000020425E493A3F8E493A34003F68001F219
:1004E00008DFF48029E493A3F85407240CC8C3332D
:1004F000C4540F4420C8834004F456800146F6DFFC
:10050000E4800B01020408102040809005EBE47E9B
:10051000019360BCA3FF543F30E509541FFEE493F0
:10052000A360010ECF54C025E060A840B8E493A3B7
:10053000FAE493A3F8E493A3C8C582C8CAC583CAE2
:10054000F0A3C8C582C8CAC583CADFE9DEE780BE9A
:0106030000F6
:00000001FF
