:0405E7000218000AEC
:100422001200031205CD120656751200751314C37D
:10043200E5139519E5129518401AA286308701B383
:10044200400512063B80E220870512063280DA124E
:10045200062080D512064D7FA87E61120600750E19
:1004620000750F017F987E3A1206001202B78E16AF
:100472008F177F987E3A120600750E00750F057F62
:10048200987E3A1206001202B78E148F157F987E5C
:100492003A120600750E00750F03D3E5179515E5A0
:1004A2001695145007C3E5169400500512001E80DD
:0E04B200031206297FBC7E3412060002042BC2
:1003700030A01830A11530A21230A30F30A40CE425
:10038000F50AF50BF50CF50D12064D30A01B20A15A
:100390001830A21530A31230A40F750A00750B0F88
:1003A000750C00750D0912063B30A01B30A11830EA
:1003B000A21530A31230A40F750A00750B0F750C2F
:1003C00000750D2812063B30A01B30A11830A21575
:1003D00030A31230A40F750A00750B09750C007557
:1003E0000D0F12063B30A01B30A11830A21530A310
:1003F0001230A40F750A00750B0A750C00750D1EDE
:1004000012063B30A01B30A11830A21530A31230C9
:10041000A40F750A00750B0B750C00750D0B1206F9
:020420003B227D
:09001E00D293C294C295D296223D
:09062000C293D294D295D2962225
:09062900C293D294D295C296222C
:09063200D293D294D295C2962213
:09063B00D293C294D295C296221A
:09064400C293D294C295D2962211
:09064D00D293D294D295D29622E8
:0F060000EF4E600B7D02DDFEEF1F70F41E80F1E8
:01060F0022C8
:1005EB0002080000020E000302100000020A003C89
:0405FB00020C003CB2
:1000030053890F438910758B33758DFEC28FD28E42
:07001300D2AFD2ABD2BB2239
:1005CD00E4F5C9F5C875CCA475CDFF75CAA475CB76
:0A05DD00FFD2CAD2ADD2AFC2BD22D8
:03001B0002059645
:10059600C0E0C0D0758B33758DFE0509E509700284
:1005A6000508D39428E508940040067508007509E7
:1005B60000C3E509950FE508950E5004D2A5800203
:0705C600C2A5D0D0D0E03245
:03002B0002054C7F
:10054C00C0E0C0D075CAA475CBFFC2CF0511E511B0
:10055C0070020510D39464E51094004006751000E9
:10056C00751100C3E511950BE510950A5004D29254
:10057C008002C292C3E511950DE510950C5004D282
:0A058C00978002C297D0D0D0E03271
:100610005389F0438909E4F58AF58CC28DD28C2286
:07065600C280C2B2020610CF
:1002B700E4F51CF51D120656D2807F017E0012065A
:1002C70000C280D2B220B21F051DE51D7002051CB9
:1002D7007F017E00120600D3E51D9410E51C9427CC
:1002E70040E37EFF7FFF22E4F51CF51D30B21F05BA
:1002F7001DE51D7002051C7F017E00120600D3E577
:100307001D9410E51C942740E37EFF7FFE22AF8CEF
:10031700AD8A7C00E4F58CF58AEFFEE42DFFEC3E18
:100327008F82F583FEE4FD7B707A117901F8C312A1
:1003370002A150057EFF7FFD22AE83AF82AD07ACE1
:1003470006E41201D97BFB7AED796B783F12002E18
:100357007B007A40791C7846120137E4FBFA792A48
:08036700784312002E1202126D
:01036F00226B
:10002E00EC4D6011E8497017ED33EC3304600DE4CC
:10003E00FCFFFEFD22E933E8330470F802027E1263
:10004E00024958046009E4CC248150062850090264
:10005E000288284003020285C0E0EB4A7044B98052
:10006E0006D0E0FB020274EF4E701CBD8008EBFF61
:10007E00EAFEE9FD80EBE98DF0A4FEE5F002011742
:10008E00E9CDF9EAFEEBFFEF89F0A4FCE5F0CE89AD
:10009E00F0A42EFFE435F0CD89F0A42DFEE435F06A
:1000AE008067EF4E7005BD80D780C3EF8BF0A4AC98
:1000BE00F0EE8BF0A42CFCE435F0F8EF8AF0A42CD3
:1000CE00E5F038FCE433CB8DF0A42CFCE5F03BF8E6
:1000DE00EE8AF0A42CFCE5F038F8E433CF89F0A4D6
:1000EE002CFCE5F038CF3400CE89F0A42FFFE5F0DC
:1000FE003EFEE433C98DF0A42EFEE5F039CD8AF034
:10010E00A42FFFE5F03EFEE43DFD33D0E0FB5007AB
:10011E000BBB000F020288EC2CFCEF33FFEE33FE1C
:06012E00ED33FD0202604A
:10013400020288EC5D046005E85904700302027E43
:10014400120249580460F6EC4860F2EC7004FDFEBB
:10015400FF22C860DB2481C85009C398600250069E
:100164000202859850CAF582E9294B4A7005AB8290
:1001740002027475F0007C1A7880C3EF9BEE9AED4E
:1001840099400DC3EF9BFFEE9AFEED99FDE842F016
:10019400DC23ACF0D0E0FFD0E0FED0E0FDAB822069
:1001A400E7101BEB60BAEC2CFCEF33FFEE33FEEDF3
:1001B40033FD020260E803F830E705C0F075F00093
:1001C400EF2FFFEE33FEED33FD40B830E7C280AAD7
:1001D40075F020800E75F010800575F0087D007EA6
:1001E400007F003392D530D503120293EC334010D4
:1001F400EF33FFEE33FEED33FDEC33FCD5F0ED22AF
:0E020400E5F0247EA2D513CC92E7CDCEFF22EA
:10021200EDD2E7CD33EC3392D524814006E4FFFEE4
:10022200FDFC22FCE4CFCECDCC24E0501174FF8043
:10023200EDC3CC13CCCD13CDCE13CECF13CF0470E0
:07024200F030D5DE0202934B
:10024900E9D2E7C933E833F892D5EDD2E7CD33ECFB
:0702590033FC5002B2D52274
:10026000EC30E7100FBF000C0EBE00080DBD0004FF
:100270000BEB6014A2D5EB13FCED92E7FD2274FFAB
:10028000FCFDFEFF22E480F8A2D574FF13FC7D8004
:03029000E480EF18
:030000000204C037
:0C04C000787FE4F6D8FD75811D02050769
:0E029300C3E49FFFE49EFEE49DFDE49CFC227C
:1002A100EB9FF5F0EA9E42F0E99D42F0EC6480C8D4
:0602B10064809845F02274
:1004CC00020422E493A3F8E493A34003F68001F220
:1004DC0008DFF48029E493A3F85407240CC8C33331
:1004EC00C4540F4420C8834004F456800146F6DF00
:1004FC00E4800B01020408102040809005E7E47EA4
:10050C00019360BCA3FF543F30E509541FFEE493F4
:10051C00A360010ECF54C025E060A840B8E493A3BB
:10052C00FAE493A3F8E493A3C8C582C8CAC583CAE6
:10053C00F0A3C8C582C8CAC583CADFE9DEE780BE9E
:0105FF0000FB
:00000001FF
