:040643000218000F8A
:10046C001200031206291206A11203B98E128F1361
:10047C00D3E5139519E51295185007C3E5129400AE
:10048C00501AA286308701B340051202B780DA20D9
:10049C00860512067480D212068680CD1206987FCD
:1004AC00047E001206541206987F107E2712065402
:1004BC00750E00750F017F207E4E1206541203B983
:1004CC008E168F177F107E27120654750E00750F2F
:1004DC00057F407E9C1206541203B98E148F157F33
:1004EC00107E27120654750E00750F03D3E5179571
:1004FC0015E51695145007C3E51694005005120027
:10050C001E800312067D7FB07E36120654020475DF
:0F065400EF4E600B7D02DDFEEF1F70F41E80F194
:010663002274
:100664005389F0438909E4F58AF58CC28DD28C2232
:0706A100C280C2B202066430
:1003B900E4F51AF51BD2807F01FE120654C280D2E1
:1003C900B220B21F051BE51B7002051A7F017E00D2
:1003D900120654D3E51B9410E51A942740E37EFFD7
:1003E9007FFF22E4F51AF51B30B21F051BE51B70D0
:1003F90002051A7F017E00120654D3E51B9410E50D
:100409001A942740E37EFF7FFE22AF8CAD8A7C00E1
:10041900E4F58CF58AEFFEE42DFFEC3E8F82F5833F
:10042900FEE4FDFBFA7901F8C31202A150057EFF33
:100439007FFD22AE83AF82AD07AC06E41201D97B02
:10044900FB7AED796B783F12002E7B007A40791C9C
:100459007846120137E4FBFA792A784312002E1202
:0204690002127D
:01046B00226E
:0C06470002080000020E00030210000078
:1000030053890F438910758B33758DFEC28FD28E42
:07001300D2AFD2ABD2BB2239
:10062900E4F5C9F5C875CCA475CDFF75CAA475CB19
:0A063900FFD2CAD2ADD2AFC2BD227B
:03001B000205F2E9
:1005F200C0E0C0D0758B33758DFE0509E509700228
:100602000508D39428E5089400400675080075098A
:1006120000C3E509950FE508950E5004D2A58002A6
:07062200C2A5D0D0D0E032E8
:03002B000205A823
:1005A800C0E0C0D075CAA475CBFFC2CF0511E51154
:1005B80070020510D39464E510940040067510008D
:1005C800751100C3E511950BE510950A5004D292F8
:1005D8008002C292C3E511950DE510950C5004D226
:0A05E800978002C297D0D0D0E03215
:09001E00D293C294C295D296223D
:09067400D293C294D295D29622D1
:09067D00C293D294D295C29622D8
:09068600D293D294D295C29622BF
:09068F00D293C294D295C29622C6
:09069800D293D294D295D296229D
:1002B70030A00F30A10C20A20930A30630A40302FE
:1002C70003B530A01820A11530A31230A40F750A6A
:1002D70000750B3C750C00750D190203B530A0189D
:1002E70030A11520A31230A40F750A00750B1975DC
:1002F7000C00750D3C0203B520A02030A11D30A3D2
:100307001A30A417750A00750B23750C00750D2399
:1003170012001E20A1030203B880F820A01A20A112
:100327001730A414750A00750B28750C00750D2875
:1003370012001E30A27B80FB30A01D30A11A30A313
:100347001720A414750A00750B23750C00750D236F
:1003570012067D30A35B80FB30A01A20A31720A4D0
:1003670014750A00750B28750C00750D2812067D8B
:1003770030A23E80FB20A01B20A11820A21520A39D
:100387001220A40F750A00750B32750C00750D321B
:1003970012069830A01B30A11830A21530A31230D6
:1003A700A40F750A00750B32750C00750D32120615
:0203B7008F2293
:10002E00EC4D6011E8497017ED33EC3304600DE4CC
:10003E00FCFFFEFD22E933E8330470F802027E1263
:10004E00024958046009E4CC248150062850090264
:10005E000288284003020285C0E0EB4A7044B98052
:10006E0006D0E0FB020274EF4E701CBD8008EBFF61
:10007E00EAFEE9FD80EBE98DF0A4FEE5F002011742
:10008E00E9CDF9EAFEEBFFEF89F0A4FCE5F0CE89AD
:10009E00F0A42EFFE435F0CD89F0A42DFEE435F06A
:1000AE008067EF4E7005BD80D780C3EF8BF0A4AC98
:1000BE00F0EE8BF0A42CFCE435F0F8EF8AF0A42CD3
:1000CE00E5F038FCE433CB8DF0A42CFCE5F03BF8E6
:1000DE00EE8AF0A42CFCE5F038F8E433CF89F0A4D6
:1000EE002CFCE5F038CF3400CE89F0A42FFFE5F0DC
:1000FE003EFEE433C98DF0A42EFEE5F039CD8AF034
:10010E00A42FFFE5F03EFEE43DFD33D0E0FB5007AB
:10011E000BBB000F020288EC2CFCEF33FFEE33FE1C
:06012E00ED33FD0202604A
:10013400020288EC5D046005E85904700302027E43
:10014400120249580460F6EC4860F2EC7004FDFEBB
:10015400FF22C860DB2481C85009C398600250069E
:100164000202859850CAF582E9294B4A7005AB8290
:1001740002027475F0007C1A7880C3EF9BEE9AED4E
:1001840099400DC3EF9BFFEE9AFEED99FDE842F016
:10019400DC23ACF0D0E0FFD0E0FED0E0FDAB822069
:1001A400E7101BEB60BAEC2CFCEF33FFEE33FEEDF3
:1001B40033FD020260E803F830E705C0F075F00093
:1001C400EF2FFFEE33FEED33FD40B830E7C280AAD7
:1001D40075F020800E75F010800575F0087D007EA6
:1001E400007F003392D530D503120293EC334010D4
:1001F400EF33FFEE33FEED33FDEC33FCD5F0ED22AF
:0E020400E5F0247EA2D513CC92E7CDCEFF22EA
:10021200EDD2E7CD33EC3392D524814006E4FFFEE4
:10022200FDFC22FCE4CFCECDCC24E0501174FF8043
:10023200EDC3CC13CCCD13CDCE13CECF13CF0470E0
:07024200F030D5DE0202934B
:10024900E9D2E7C933E833F892D5EDD2E7CD33ECFB
:0702590033FC5002B2D52274
:10026000EC30E7100FBF000C0EBE00080DBD0004FF
:100270000BEB6014A2D5EB13FCED92E7FD2274FFAB
:10028000FCFDFEFF22E480F8A2D574FF13FC7D8004
:03029000E480EF18
:0300000002051CDA
:0C051C00787FE4F6D8FD75811B020563B2
:0E029300C3E49FFFE49EFEE49DFDE49CFC227C
:1002A100EB9FF5F0EA9E42F0E99D42F0EC6480C8D4
:0602B10064809845F02274
:1005280002046CE493A3F8E493A34003F68001F279
:1005380008DFF48029E493A3F85407240CC8C333D4
:10054800C4540F4420C8834004F456800146F6DFA3
:10055800E4800B0102040810204080900643E47EEA
:10056800019360BCA3FF543F30E509541FFEE49398
:10057800A360010ECF54C025E060A840B8E493A35F
:10058800FAE493A3F8E493A3C8C582C8CAC583CA8A
:10059800F0A3C8C582C8CAC583CADFE9DEE780BE42
:0106530000A6
:00000001FF
