:0C0555000210000A020800000212000A56
:1000030053890F758BAE758DFBC28FD28ED2ABD257
:02001300AF221A
:1002A700120562120003A2A0E433F514A2A1E433FD
:1002B700F515A2A2E433F516A2A3E433F517A2A419
:1002C700E433F5181203BD8E0A8F0BD3E50B951196
:1002D700E50A95104067A286308701B34046D2B43D
:1002E700C2B5D2B6C2B7E5172518FFE433FEE51449
:1002F7002515FDE433FCD3ED9FEE6480F8EC6480B4
:10030700984004C2B48022C3ED9FEE6480F8EC6489
:100317008098500AD2B4C2B5C2B6D2B78088D2B4D8
:10032700C2B5800720870BD2B4D2B5D2B6C2B70206
:1003370002ADD2B4C2B5D2B6D2B70202ADD2B4D2F0
:10034700B5D2B6D2B77F987E3A12053575120075C9
:1003570013047FA87E611205351203BD8E0E8F0F21
:100367007FA87E6112053575120075130F7FA87E71
:10037700611205351203BD8E0C8F0D7FA87E6112A9
:10038700053575120075130AD3E50F950DE50E9522
:100397000C5007C3E50E9400500AD2B4C2B5C2B6DA
:1003A700D2B78008C2B4D2B5D2B6C2B77FDC7E82DC
:0603B7001205350202AD43
:03001B000204FEDE
:1004FE00C0E0C0D0758BAE758DFBC3E5099513E5D5
:10050E000895125004D2908002C2900509E5097038
:10051E00020508D394C8E5089400400675080075D6
:07052E000900D0D0D0E0323B
:0F053500EF4E600B7D02DDFEEF1F70F41E80F1B4
:010544002294
:100545005389F0438909E4F58BF58DC28DD28C2250
:07056200C280C2B202054590
:1003BD00E4F519F51AD2807F01FE120535C280D2FF
:1003CD00B220B21F051AE51A700205197F017E00D1
:1003DD00120535D3E51A9410E519942740E37EFFF5
:1003ED007FFF22E4F519F51A30B21F051AE51A70D0
:1003FD000205197F017E00120535D3E51A9410E52B
:10040D0019942740E37EFF7FFE22AF8CAD8AE4F581
:10041D008CF58AEFFE7C00E42DFFEC3E8F82F58398
:10042D00FEE4FD7B707A117901F8C312029150053B
:10043D007EFF7FFD22AE83AF82AD07AC06E41201D5
:10044D00C97BFB7AED796B783F12001E7B007A40F9
:10045D00791C7846120127E4FBFA792A78431200B9
:04046D001E12020257
:010471002268
:10001E00EC4D6011E8497017ED33EC3304600DE4DC
:10002E00FCFFFEFD22E933E8330470F802026E1283
:10003E00023958046009E4CC248150062850090284
:10004E000278284003020275C0E0EB4A7044B98082
:10005E0006D0E0FB020264EF4E701CBD8008EBFF81
:10006E00EAFEE9FD80EBE98DF0A4FEE5F002010762
:10007E00E9CDF9EAFEEBFFEF89F0A4FCE5F0CE89BD
:10008E00F0A42EFFE435F0CD89F0A42DFEE435F07A
:10009E008067EF4E7005BD80D780C3EF8BF0A4ACA8
:1000AE00F0EE8BF0A42CFCE435F0F8EF8AF0A42CE3
:1000BE00E5F038FCE433CB8DF0A42CFCE5F03BF8F6
:1000CE00EE8AF0A42CFCE5F038F8E433CF89F0A4E6
:1000DE002CFCE5F038CF3400CE89F0A42FFFE5F0EC
:1000EE003EFEE433C98DF0A42EFEE5F039CD8AF044
:1000FE00A42FFFE5F03EFEE43DFD33D0E0FB5007BC
:10010E000BBB000F020278EC2CFCEF33FFEE33FE3C
:06011E00ED33FD0202506A
:10012400020278EC5D046005E85904700302026E73
:10013400120239580460F6EC4860F2EC7004FDFEDB
:10014400FF22C860DB2481C85009C39860025006AE
:100154000202759850CAF582E9294B4A7005AB82B0
:1001640002026475F0007C1A7880C3EF9BEE9AED6E
:1001740099400DC3EF9BFFEE9AFEED99FDE842F026
:10018400DC23ACF0D0E0FFD0E0FED0E0FDAB822079
:10019400E7101BEB60BAEC2CFCEF33FFEE33FEED03
:1001A40033FD020250E803F830E705C0F075F000B3
:1001B400EF2FFFEE33FEED33FD40B830E7C280AAE7
:1001C40075F020800E75F010800575F0087D007EB6
:1001D400007F003392D530D503120283EC334010F4
:1001E400EF33FFEE33FEED33FDEC33FCD5F0ED22BF
:0E01F400E5F0247EA2D513CC92E7CDCEFF22FB
:10020200EDD2E7CD33EC3392D524814006E4FFFEF4
:10021200FDFC22FCE4CFCECDCC24E0501174FF8053
:10022200EDC3CC13CCCD13CDCE13CECF13CF0470F0
:07023200F030D5DE0202836B
:10023900E9D2E7C933E833F892D5EDD2E7CD33EC0B
:0702490033FC5002B2D52284
:10025000EC30E7100FBF000C0EBE00080DBD00040F
:100260000BEB6014A2D5EB13FCED92E7FD2274FFBB
:10027000FCFDFEFF22E480F8A2D574FF13FC7D8014
:03028000E480EF28
:0300000002047285
:0C047200787FE4F6D8FD75811A0204B909
:0E028300C3E49FFFE49EFEE49DFDE49CFC228C
:10029100EB9FF5F0EA9E42F0E99D42F0EC6480C8E4
:0602A10064809845F02284
:10047E000202A7E493A3F8E493A34003F68001F2EB
:10048E0008DFF48029E493A3F85407240CC8C3337F
:10049E00C4540F4420C8834004F456800146F6DF4E
:1004AE00E4800B0102040810204080900555E47E84
:1004BE00019360BCA3FF543F30E509541FFEE49343
:1004CE00A360010ECF54C025E060A840B8E493A30A
:1004DE00FAE493A3F8E493A3C8C582C8CAC583CA35
:1004EE00F0A3C8C582C8CAC583CADFE9DEE780BEED
:010561000099
:00000001FF
